{
  "_format": "hh-sol-artifact-1",
  "contractName": "Counter",
  "sourceName": "contracts/Counter.sol",
  "abi": [
    {
      "inputs": [],
      "stateMutability": "nonpayable",
      "type": "constructor"
    },
    {
      "inputs": [],
      "name": "add",
      "outputs": [],
      "stateMutability": "nonpayable",
      "type": "function"
    },
    {
      "inputs": [],
      "name": "decrement",
      "outputs": [],
      "stateMutability": "nonpayable",
      "type": "function"
    },
    {
      "inputs": [],
      "name": "getCounts",
      "outputs": [
        {
          "internalType": "uint256",
          "name": "",
          "type": "uint256"
        }
      ],
      "stateMutability": "view",
      "type": "function"
    }
  ],
  "bytecode": "0x608060405234801561001057600080fd5b50600080819055506101bf806100276000396000f3fe608060405234801561001057600080fd5b50600436106100415760003560e01c80632baeceb7146100465780634f2be91f14610050578063a53738991461005a575b600080fd5b61004e610078565b005b610058610091565b005b6100626100aa565b60405161006f91906100c2565b60405180910390f35b60008081548092919061008a906100e7565b9190505550565b6000808154809291906100a390610111565b9190505550565b60008054905090565b6100bc816100dd565b82525050565b60006020820190506100d760008301846100b3565b92915050565b6000819050919050565b60006100f2826100dd565b915060008214156101065761010561015a565b5b600182039050919050565b600061011c826100dd565b91507fffffffffffffffffffffffffffffffffffffffffffffffffffffffffffffffff82141561014f5761014e61015a565b5b600182019050919050565b7f4e487b7100000000000000000000000000000000000000000000000000000000600052601160045260246000fdfea264697066735822122012fd2e1b1d1742238b37b71aa7b72d3a3fd3b6cbf5d2b96c57bc06c0dce1931c64736f6c63430008040033",
  "linkReferences": {},
  "deployedLinkReferences": {}
}